{
  "contractName": "Optic",
  "abi": [
    {
      "constant": false,
      "inputs": [],
      "name": "setAppointment_none",
      "outputs": [],
      "payable": false,
      "stateMutability": "nonpayable",
      "type": "function"
    },
    {
      "constant": false,
      "inputs": [],
      "name": "setAppointment_myopia",
      "outputs": [],
      "payable": false,
      "stateMutability": "nonpayable",
      "type": "function"
    },
    {
      "constant": false,
      "inputs": [],
      "name": "setAppointment_farsightedness",
      "outputs": [],
      "payable": false,
      "stateMutability": "nonpayable",
      "type": "function"
    },
    {
      "constant": false,
      "inputs": [
        {
          "internalType": "string",
          "name": "name_p",
          "type": "string"
        }
      ],
      "name": "Set_patient_name",
      "outputs": [],
      "payable": false,
      "stateMutability": "nonpayable",
      "type": "function"
    },
    {
      "constant": true,
      "inputs": [],
      "name": "Get_patient_name",
      "outputs": [
        {
          "internalType": "string",
          "name": "",
          "type": "string"
        }
      ],
      "payable": false,
      "stateMutability": "view",
      "type": "function"
    },
    {
      "constant": false,
      "inputs": [
        {
          "internalType": "string",
          "name": "surname_p",
          "type": "string"
        }
      ],
      "name": "Set_patient_surname",
      "outputs": [],
      "payable": false,
      "stateMutability": "nonpayable",
      "type": "function"
    },
    {
      "constant": true,
      "inputs": [],
      "name": "Get_patient_surname",
      "outputs": [
        {
          "internalType": "string",
          "name": "",
          "type": "string"
        }
      ],
      "payable": false,
      "stateMutability": "view",
      "type": "function"
    },
    {
      "constant": false,
      "inputs": [
        {
          "internalType": "string",
          "name": "patronymic_p",
          "type": "string"
        }
      ],
      "name": "Set_patient_patronymic",
      "outputs": [],
      "payable": false,
      "stateMutability": "nonpayable",
      "type": "function"
    },
    {
      "constant": true,
      "inputs": [],
      "name": "Get_patient_patronymic",
      "outputs": [
        {
          "internalType": "string",
          "name": "",
          "type": "string"
        }
      ],
      "payable": false,
      "stateMutability": "view",
      "type": "function"
    },
    {
      "constant": false,
      "inputs": [
        {
          "internalType": "int256",
          "name": "age_p",
          "type": "int256"
        }
      ],
      "name": "Set_patient_age",
      "outputs": [],
      "payable": false,
      "stateMutability": "nonpayable",
      "type": "function"
    },
    {
      "constant": true,
      "inputs": [],
      "name": "Get_patient_age",
      "outputs": [
        {
          "internalType": "int256",
          "name": "",
          "type": "int256"
        }
      ],
      "payable": false,
      "stateMutability": "view",
      "type": "function"
    },
    {
      "constant": false,
      "inputs": [
        {
          "internalType": "string",
          "name": "date",
          "type": "string"
        }
      ],
      "name": "Set_patient_prescription_date",
      "outputs": [],
      "payable": false,
      "stateMutability": "nonpayable",
      "type": "function"
    },
    {
      "constant": true,
      "inputs": [],
      "name": "Get_patient_prescription_date",
      "outputs": [
        {
          "internalType": "string",
          "name": "",
          "type": "string"
        }
      ],
      "payable": false,
      "stateMutability": "view",
      "type": "function"
    },
    {
      "constant": false,
      "inputs": [
        {
          "internalType": "int256",
          "name": "distance",
          "type": "int256"
        }
      ],
      "name": "Set_distance_between_centers",
      "outputs": [],
      "payable": false,
      "stateMutability": "nonpayable",
      "type": "function"
    },
    {
      "constant": true,
      "inputs": [],
      "name": "Get_distance_between_centers",
      "outputs": [
        {
          "internalType": "int256",
          "name": "",
          "type": "int256"
        }
      ],
      "payable": false,
      "stateMutability": "view",
      "type": "function"
    },
    {
      "constant": false,
      "inputs": [
        {
          "internalType": "string",
          "name": "name_d",
          "type": "string"
        }
      ],
      "name": "Set_doctor_name",
      "outputs": [],
      "payable": false,
      "stateMutability": "nonpayable",
      "type": "function"
    },
    {
      "constant": true,
      "inputs": [],
      "name": "Get_doctor_name",
      "outputs": [
        {
          "internalType": "string",
          "name": "",
          "type": "string"
        }
      ],
      "payable": false,
      "stateMutability": "view",
      "type": "function"
    },
    {
      "constant": false,
      "inputs": [
        {
          "internalType": "string",
          "name": "surname_d",
          "type": "string"
        }
      ],
      "name": "Set_doctor_surname",
      "outputs": [],
      "payable": false,
      "stateMutability": "nonpayable",
      "type": "function"
    },
    {
      "constant": true,
      "inputs": [],
      "name": "Get_doctor_surname",
      "outputs": [
        {
          "internalType": "string",
          "name": "",
          "type": "string"
        }
      ],
      "payable": false,
      "stateMutability": "view",
      "type": "function"
    },
    {
      "constant": false,
      "inputs": [
        {
          "internalType": "string",
          "name": "patronymic_d",
          "type": "string"
        }
      ],
      "name": "Set_doctor_patronymic",
      "outputs": [],
      "payable": false,
      "stateMutability": "nonpayable",
      "type": "function"
    },
    {
      "constant": true,
      "inputs": [],
      "name": "Get_doctor_patronymic",
      "outputs": [
        {
          "internalType": "string",
          "name": "",
          "type": "string"
        }
      ],
      "payable": false,
      "stateMutability": "view",
      "type": "function"
    },
    {
      "constant": false,
      "inputs": [
        {
          "internalType": "string",
          "name": "doctor_n",
          "type": "string"
        }
      ],
      "name": "Set_doctor_notes",
      "outputs": [],
      "payable": false,
      "stateMutability": "nonpayable",
      "type": "function"
    },
    {
      "constant": true,
      "inputs": [],
      "name": "Get_doctor_notes",
      "outputs": [
        {
          "internalType": "string",
          "name": "",
          "type": "string"
        }
      ],
      "payable": false,
      "stateMutability": "view",
      "type": "function"
    }
  ],
  "bytecode": "0x60806040526002600a60016101000a81548160ff0219169083600281111561002357fe5b021790555034801561003457600080fd5b5061134c806100446000396000f3fe608060405234801561001057600080fd5b506004361061014d5760003560e01c8063629e0cac116100c3578063a3e5126e1161007c578063a3e5126e14610954578063ab5a9a4a146109d7578063b97d9242146109e1578063b99caeb614610a64578063cf74134714610a82578063cf74a4a114610b3d5761014d565b8063629e0cac146106e1578063632674e11461079c5780636a741154146107ca578063721b4ae01461084d5780637af4b3f01461086b57806386a5a14e146108995761014d565b8063369384c611610115578063369384c6146103a057806337d117f61461045b57806339b6cf6214610465578063572ce6af146104e857806357bc6265146105a35780635c387072146106265761014d565b80630a5319ff14610152578063126054f8146101d5578063162c4b7814610258578063206e1f8e1461026257806333242e2e146102e5575b600080fd5b61015a610bf8565b6040518080602001828103825283818151815260200191508051906020019080838360005b8381101561019a57808201518184015260208101905061017f565b50505050905090810190601f1680156101c75780820380516001836020036101000a031916815260200191505b509250505060405180910390f35b6101dd610c9a565b6040518080602001828103825283818151815260200191508051906020019080838360005b8381101561021d578082015181840152602081019050610202565b50505050905090810190601f16801561024a5780820380516001836020036101000a031916815260200191505b509250505060405180910390f35b610260610d3c565b005b61026a610d62565b6040518080602001828103825283818151815260200191508051906020019080838360005b838110156102aa57808201518184015260208101905061028f565b50505050905090810190601f1680156102d75780820380516001836020036101000a031916815260200191505b509250505060405180910390f35b61039e600480360360208110156102fb57600080fd5b810190808035906020019064010000000081111561031857600080fd5b82018360208201111561032a57600080fd5b8035906020019184600183028401116401000000008311171561034c57600080fd5b91908080601f016020809104026020016040519081016040528093929190818152602001838380828437600081840152601f19601f820116905080830192505050505050509192919290505050610e04565b005b610459600480360360208110156103b657600080fd5b81019080803590602001906401000000008111156103d357600080fd5b8201836020820111156103e557600080fd5b8035906020019184600183028401116401000000008311171561040757600080fd5b91908080601f016020809104026020016040519081016040528093929190818152602001838380828437600081840152601f19601f820116905080830192505050505050509192919290505050610e1e565b005b610463610e38565b005b61046d610e5e565b6040518080602001828103825283818151815260200191508051906020019080838360005b838110156104ad578082015181840152602081019050610492565b50505050905090810190601f1680156104da5780820380516001836020036101000a031916815260200191505b509250505060405180910390f35b6105a1600480360360208110156104fe57600080fd5b810190808035906020019064010000000081111561051b57600080fd5b82018360208201111561052d57600080fd5b8035906020019184600183028401116401000000008311171561054f57600080fd5b91908080601f016020809104026020016040519081016040528093929190818152602001838380828437600081840152601f19601f820116905080830192505050505050509192919290505050610f00565b005b6105ab610f1a565b6040518080602001828103825283818151815260200191508051906020019080838360005b838110156105eb5780820151818401526020810190506105d0565b50505050905090810190601f1680156106185780820380516001836020036101000a031916815260200191505b509250505060405180910390f35b6106df6004803603602081101561063c57600080fd5b810190808035906020019064010000000081111561065957600080fd5b82018360208201111561066b57600080fd5b8035906020019184600183028401116401000000008311171561068d57600080fd5b91908080601f016020809104026020016040519081016040528093929190818152602001838380828437600081840152601f19601f820116905080830192505050505050509192919290505050610fbc565b005b61079a600480360360208110156106f757600080fd5b810190808035906020019064010000000081111561071457600080fd5b82018360208201111561072657600080fd5b8035906020019184600183028401116401000000008311171561074857600080fd5b91908080601f016020809104026020016040519081016040528093929190818152602001838380828437600081840152601f19601f820116905080830192505050505050509192919290505050610fd6565b005b6107c8600480360360208110156107b257600080fd5b8101908080359060200190929190505050610ff0565b005b6107d2610ffa565b6040518080602001828103825283818151815260200191508051906020019080838360005b838110156108125780820151818401526020810190506107f7565b50505050905090810190601f16801561083f5780820380516001836020036101000a031916815260200191505b509250505060405180910390f35b61085561109c565b6040518082815260200191505060405180910390f35b6108976004803603602081101561088157600080fd5b81019080803590602001909291905050506110a6565b005b610952600480360360208110156108af57600080fd5b81019080803590602001906401000000008111156108cc57600080fd5b8201836020820111156108de57600080fd5b8035906020019184600183028401116401000000008311171561090057600080fd5b91908080601f016020809104026020016040519081016040528093929190818152602001838380828437600081840152601f19601f8201169050808301925050505050505091929192905050506110b0565b005b61095c6110ca565b6040518080602001828103825283818151815260200191508051906020019080838360005b8381101561099c578082015181840152602081019050610981565b50505050905090810190601f1680156109c95780820380516001836020036101000a031916815260200191505b509250505060405180910390f35b6109df61116c565b005b6109e9611192565b6040518080602001828103825283818151815260200191508051906020019080838360005b83811015610a29578082015181840152602081019050610a0e565b50505050905090810190601f168015610a565780820380516001836020036101000a031916815260200191505b509250505060405180910390f35b610a6c611234565b6040518082815260200191505060405180910390f35b610b3b60048036036020811015610a9857600080fd5b8101908080359060200190640100000000811115610ab557600080fd5b820183602082011115610ac757600080fd5b80359060200191846001830284011164010000000083111715610ae957600080fd5b91908080601f016020809104026020016040519081016040528093929190818152602001838380828437600081840152601f19601f82011690508083019250505050505050919291929050505061123e565b005b610bf660048036036020811015610b5357600080fd5b8101908080359060200190640100000000811115610b7057600080fd5b820183602082011115610b8257600080fd5b80359060200191846001830284011164010000000083111715610ba457600080fd5b91908080601f016020809104026020016040519081016040528093929190818152602001838380828437600081840152601f19601f820116905080830192505050505050509192919290505050611258565b005b606060068054600181600116156101000203166002900480601f016020809104026020016040519081016040528092919081815260200182805460018160011615610100020316600290048015610c905780601f10610c6557610100808354040283529160200191610c90565b820191906000526020600020905b815481529060010190602001808311610c7357829003601f168201915b5050505050905090565b606060048054600181600116156101000203166002900480601f016020809104026020016040519081016040528092919081815260200182805460018160011615610100020316600290048015610d325780601f10610d0757610100808354040283529160200191610d32565b820191906000526020600020905b815481529060010190602001808311610d1557829003601f168201915b5050505050905090565b6000600a60006101000a81548160ff02191690836002811115610d5b57fe5b0217905550565b606060028054600181600116156101000203166002900480601f016020809104026020016040519081016040528092919081815260200182805460018160011615610100020316600290048015610dfa5780601f10610dcf57610100808354040283529160200191610dfa565b820191906000526020600020905b815481529060010190602001808311610ddd57829003601f168201915b5050505050905090565b8060069080519060200190610e1a929190611272565b5050565b8060099080519060200190610e34929190611272565b5050565b6002600a60006101000a81548160ff02191690836002811115610e5757fe5b0217905550565b606060098054600181600116156101000203166002900480601f016020809104026020016040519081016040528092919081815260200182805460018160011615610100020316600290048015610ef65780601f10610ecb57610100808354040283529160200191610ef6565b820191906000526020600020905b815481529060010190602001808311610ed957829003601f168201915b5050505050905090565b8060079080519060200190610f16929190611272565b5050565b606060018054600181600116156101000203166002900480601f016020809104026020016040519081016040528092919081815260200182805460018160011615610100020316600290048015610fb25780601f10610f8757610100808354040283529160200191610fb2565b820191906000526020600020905b815481529060010190602001808311610f9557829003601f168201915b5050505050905090565b8060009080519060200190610fd2929190611272565b5050565b8060019080519060200190610fec929190611272565b5050565b8060058190555050565b606060078054600181600116156101000203166002900480601f0160208091040260200160405190810160405280929190818152602001828054600181600116156101000203166002900480156110925780601f1061106757610100808354040283529160200191611092565b820191906000526020600020905b81548152906001019060200180831161107557829003601f168201915b5050505050905090565b6000600554905090565b8060038190555050565b80600490805190602001906110c6929190611272565b5050565b606060088054600181600116156101000203166002900480601f0160208091040260200160405190810160405280929190818152602001828054600181600116156101000203166002900480156111625780601f1061113757610100808354040283529160200191611162565b820191906000526020600020905b81548152906001019060200180831161114557829003601f168201915b5050505050905090565b6000600a60006101000a81548160ff0219169083600281111561118b57fe5b0217905550565b606060008054600181600116156101000203166002900480601f01602080910402602001604051908101604052809291908181526020018280546001816001161561010002031660029004801561122a5780601f106111ff5761010080835404028352916020019161122a565b820191906000526020600020905b81548152906001019060200180831161120d57829003601f168201915b5050505050905090565b6000600354905090565b8060089080519060200190611254929190611272565b5050565b806002908051906020019061126e929190611272565b5050565b828054600181600116156101000203166002900490600052602060002090601f016020900481019282601f106112b357805160ff19168380011785556112e1565b828001600101855582156112e1579182015b828111156112e05782518255916020019190600101906112c5565b5b5090506112ee91906112f2565b5090565b61131491905b808211156113105760008160009055506001016112f8565b5090565b9056fea265627a7a72315820f97f669666db1279cdffda96091a5a1c559037e07f4ad749d102e7b8688716a764736f6c63430005100032",
  "source": "pragma solidity >=0.4.15;\r\n\r\n\r\ncontract Optic {\r\n    string private patient_name;\r\n    string private patient_surname;\r\n    string private patient_patronymic;\r\n    int256 private patient_age;\r\n    string private prescription_date;\r\n    int256 private distance_between_centers;\r\n    struct left_eye {\r\n        string sph;\r\n        string cyl;\r\n        string ax;\r\n        string pr;\r\n        string pr_base;\r\n    }\r\n\r\n    struct right_eye {\r\n        string sph;\r\n        string cyl;\r\n        string ax;\r\n        string pr;\r\n        string pr_base;\r\n    }\r\n    string private doctor_name;\r\n    string private doctor_surname;\r\n    string private doctor_patronymic;\r\n    string private doctor_notes;\r\n\r\n    enum Appointment {myopia, farsightedness, none}\r\n    Appointment choice;\r\n    Appointment defaultAppointment = Appointment.none;\r\n\r\n    function setAppointment_none() public {\r\n        choice = Appointment.none;\r\n    }\r\n\r\n    function setAppointment_myopia() public {\r\n        choice = Appointment.myopia;\r\n    }\r\n\r\n    function setAppointment_farsightedness() public {\r\n        choice = Appointment.myopia;\r\n    }\r\n\r\n    function Set_patient_name(string memory name_p) public {\r\n        patient_name = name_p;\r\n    }\r\n\r\n    function Get_patient_name() public view returns (string memory) {\r\n        return patient_name;\r\n    }\r\n\r\n    function Set_patient_surname(string memory surname_p) public {\r\n        patient_surname = surname_p;\r\n    }\r\n\r\n    function Get_patient_surname() public view returns (string memory) {\r\n        return patient_surname;\r\n    }\r\n\r\n    function Set_patient_patronymic(string memory patronymic_p) public {\r\n        patient_patronymic = patronymic_p;\r\n    }\r\n\r\n    function Get_patient_patronymic() public view returns (string memory) {\r\n        return patient_patronymic;\r\n    }\r\n\r\n    function Set_patient_age(int256 age_p) public {\r\n        patient_age = age_p;\r\n    }\r\n\r\n    function Get_patient_age() public view returns (int256) {\r\n        return patient_age;\r\n    }\r\n\r\n    function Set_patient_prescription_date(string memory date) public {\r\n        prescription_date = date;\r\n    }\r\n\r\n    function Get_patient_prescription_date()\r\n        public\r\n        view\r\n        returns (string memory)\r\n    {\r\n        return prescription_date;\r\n    }\r\n\r\n    function Set_distance_between_centers(int256 distance) public {\r\n        distance_between_centers = distance;\r\n    }\r\n\r\n    function Get_distance_between_centers() public view returns (int256) {\r\n        return distance_between_centers;\r\n    }\r\n\r\n    function Set_doctor_name(string memory name_d) public {\r\n        doctor_name = name_d;\r\n    }\r\n\r\n    function Get_doctor_name() public view returns (string memory) {\r\n        return doctor_name;\r\n    }\r\n\r\n    function Set_doctor_surname(string memory surname_d) public {\r\n        doctor_surname = surname_d;\r\n    }\r\n\r\n    function Get_doctor_surname() public view returns (string memory) {\r\n        return doctor_surname;\r\n    }\r\n\r\n    function Set_doctor_patronymic(string memory patronymic_d) public {\r\n        doctor_patronymic = patronymic_d;\r\n    }\r\n\r\n    function Get_doctor_patronymic() public view returns (string memory) {\r\n        return doctor_patronymic;\r\n    }\r\n\r\n    function Set_doctor_notes(string memory doctor_n) public {\r\n        doctor_notes = doctor_n;\r\n    }\r\n\r\n    function Get_doctor_notes() public view returns (string memory) {\r\n        return doctor_notes;\r\n    }\r\n}\r\n",
  "sourcePath": "C:\\Users\\maxim\\Desktop\\project\\project\\SmartContracts\\contracts\\Optic.sol",
  "compiler": {
    "name": "solc",
    "version": "0.5.16+commit.9c3226ce.Emscripten.clang"
  },
  "schemaVersion": "3.1.0",
  "updatedAt": "2020-05-16T22:01:43.421Z",
  "devdoc": {
    "methods": {}
  },
  "userdoc": {
    "methods": {}
  }
}